:100A15004465766E6167617269200052757065651F
:100A25002073796D626F6C20001F040E15150C0480
:100A3500001F090B15130909001F090909091919CF
:100A4500001F11110D11110F011F020E100E0111C2
:100A55000E1F01011D090907011F021F020A0402D9
:090A650001000000000000000087
:100A9B00014E01015502014D0F0152800153C0015E
:100AAB00561001511401501801571C014F080154E5
:010ABB000C2E
:100AFF00E4FDFCC3ED9FEC9E5015E4FBFA0BBB002D
:0F0B0F00010AEB64354A70F50DBD00010C80E45E
:010B1E0022B4
:0C0B3800D2A47F047E00120AFFC2A42297
:100ABD00A90775A080C2A4C2A6E954F0FFC4540FC3
:100ACD004480F5A0120B38E9540F4480F5A0020BB9
:010ADD0038E0
:100B1F00C2A4C2A675A082120B38AF4E120ABDAF87
:090B2F004D120ABDAF55020ABDCA
:100ADE00A90775A0C0C2A4D2A6E954F0FFC4540F52
:100AEE0044C0F5A0120B38E9540F44C0F5A0020B18
:010AFE0038BF
:060A6E008B498A4A894B06
:100A7400E4F54CAB49AA4AA94B1208F6FF601712D9
:100A84000ADE7401254BF54BE4354AF54A054CE57D
:060A94004CC3941040DD8C
:010A9A002239
:10099B0078087C007D007BFF7A0A792E7E007F40F1
:1009AB001208D0E4F548120B1FAF54120ABD7F405A
:1009BB00120ABDE4F54874082548F8E6FF120ADE72
:1009CB000548E548C3944040EDAF52120ABD7BFF8A
:1009DB007A0A7915120A6EE4FF120ADE7F01120AF7
:1009EB00DE7F02120ADE7F03120ADE7F04120ADEAA
:1009FB007F05120ADEAF53120ABD7BFF7A0A7920FC
:0A0A0B00120A6E7F06120ADE80FE5A
:0300000002090FE3
:0C090F00787FE4F6D8FD75815702095688
:10080000E709F608DFFA8046E709F208DFFA803EDA
:1008100088828C83E709F0A3DFFA8032E309F608C7
:10082000DFFA8078E309F208DFFA807088828C832F
:10083000E309F0A3DFFA806489828A83E0A3F608E3
:10084000DFFA805889828A83E0A3F208DFFA804CBD
:1008500080D280FA80C680D4806980F28033801094
:1008600080A680EA809A80A880DA80E280CA8033FD
:1008700089828A83ECFAE493A3C8C582C8CCC58375
:10088000CCF0A3C8C582C8CCC583CCDFE9DEE78045
:100890000D89828A83E493A3F608DFF9ECFAA9F0C4
:1008A000EDFB2289828A83ECFAE0A3C8C582C8CC1A
:1008B000C583CCF0A3C8C582C8CCC583CCDFEADE33
:1008C000E880DB89828A83E493A3F208DFF980CC95
:1008D00088F0EF60010E4E60C388F0ED2402B4048E
:1008E0000050B9F582EB2402B4040050AF23234535
:0608F00082239008507302
:1008F600BB010689828A83E0225002E722BBFE0200
:09090600E32289828A83E4932232
:10091B0002099BE493A3F8E493A34003F68001F24E
:10092B0008DFF48029E493A3F85407240CC8C333DD
:10093B00C4540F4420C8834004F456800146F6DFAC
:10094B00E4800B0102040810204080900A9BE47E97
:10095B00019360BCA3FF543F30E509541FFEE493A1
:10096B00A360010ECF54C025E060A840B8E493A368
:10097B00FAE493A3F8E493A3C8C582C8CAC583CA93
:10098B00F0A3C8C582C8CAC583CADFE9DEE780BE4B
:010ABC000039
:00000001FF
